:020000040000FA
:100000000C945E000C9486000C9486000C94860080
:100010000C9486000C9486000C9486000C94860048
:100020000C9486000C9486000C9486000C94A90312
:100030000C9486000C9486000C9486000C94860028
:100040000C9407030C9486000C9477030C945103D2
:100050000C9486000C9486000C9486000C94860008
:100060000C9486000C948600000000080002010039
:100070000003040700000000000000000000000072
:10008000250028002B0000000000240027002A0083
:10009000040404040404040402020202020203032E
:1000A0000303030301020408102040800102040836
:1000B00010200102040810206504870611241FBEC9
:1000C000CFEFD8E0DEBFCDBF11E0A0E0B1E0E8E8BF
:1000D000F2E102C005900D92A835B107D9F722E0F0
:1000E000A8E5B1E001C01D92A333B207E1F710E02B
:1000F000CDE5D0E004C02197FE010E943607CC3543
:10010000D107C9F70E94F4040C9437090C9400003D
:1001100090E0FC01EC55FF4F249180579F4FFC016C
:100120008491882399F090E0880F991FFC01EA5789
:10013000FF4FA591B491FC01E458FF4F8591949134
:100140008FB7F894EC91E22BEC938FBF08958F92C8
:100150009F92AF92BF92FF920F931F93CF93DF9323
:10016000F09026022BE02F1508F44CC020912802B5
:1001700008E512E0021B110927FD1395000F111F5E
:10018000000F111F20912702C8E8D0E0C21BD1093F
:1001900027FDD395CC0FDD1FCC0FDD1F4E010D2E9B
:1001A000000CAA08BB089801012E000C440B550B4B
:1001B000281939094A095B09DC010E94BA0624EBB7
:1001C00030E040E050E00E949006820E931EA41E94
:1001D000B51E8C169D062CF0E801801691060CF4D5
:1001E000E4012297CC0FDD1F2FB7F8948F2D90E0FC
:1001F000FC01EE0FFF1FE80FF91FEF5FFD4FD283E9
:10020000C1832FBFDF91CF911F910F91FF90BF90BE
:10021000AF909F908F90089590E0FC01E859FF4FB8
:100220002491FC01EC55FF4F3491FC01E057FF4F46
:10023000E491EE23C9F0222339F0233001F1A8F430
:10024000213019F1223029F1F0E0EE0FFF1FE458C0
:10025000FF4FA591B4918FB7F894EC91611126C02E
:1002600030953E233C938FBF08952730A9F0283066
:10027000C9F0243049F7809180008F7D03C08091C0
:1002800080008F7780938000DFCF84B58F7784BD27
:10029000DBCF84B58F7DFBCF8091B0008F778093CB
:1002A000B000D2CF8091B0008F7DF9CF3E2BDACF56
:1002B0003FB7F8948091600190916101A091620133
:1002C000B091630126B5A89B05C02F3F19F0019698
:1002D000A11DB11D3FBFBA2FA92F982F8827BC01A0
:1002E000CD01620F711D811D911D42E0660F771FC8
:1002F000881F991F4A95D1F708958F929F92AF92C8
:10030000BF92CF92DF92EF92FF924B015C010E946D
:1003100058016B017C010E9458016C197D098E09FE
:100320009F09683E734081059105A8F321E0821A78
:100330009108A108B10888EEC80E83E0D81EE11C20
:10034000F11C81149104A104B10429F7FF90EF90EE
:10035000DF90CF90BF90AF909F908F900895AF9215
:10036000BF92CF92DF92EF92FF920F931F93CF93A2
:10037000DF936C017B018B01040F151FEB015E0104
:10038000AE18BF08C017D10759F06991D601ED9199
:10039000FC910190F081E02DC6010995892B79F738
:1003A000C501DF91CF911F910F91FF90EF90DF90EA
:1003B000CF90BF90AF900895FC01538D448D252FB1
:1003C00030E0842F90E0821B930B541710F0CF96EF
:1003D000089501970895FC01918D828D981761F021
:1003E000A28DAE0FBF2FB11D5D968C91928D9F5F38
:1003F0009F73928F90E008958FEF9FEF0895FC0117
:10040000918D828D981731F0828DE80FF11D858DC9
:1004100090E008958FEF9FEF0895FC01918D228D5C
:10042000892F90E0805C9F4F821B91098F739927E1
:10043000089584E691E00E940D0221E0892B09F4E1
:1004400020E0822F089580E090E0892B29F00E941F
:10045000190281110C9400000895FC01A48DA80FCD
:10046000B92FB11DA35ABF4F2C91848D90E00196F6
:100470008F739927848FA689B7892C93A089B18916
:100480008C91837080648C93938D848D981306C0B7
:100490000288F389E02D80818F7D80830895EF921B
:1004A000FF920F931F93CF93DF93EC0181E0888F2E
:1004B0009B8D8C8D98131AC0E889F989808185FFFE
:1004C00015C09FB7F894EE89FF896083E889F989A0
:1004D00080818370806480839FBF81E090E0DF91A2
:1004E000CF911F910F91FF90EF900895F62E0B8DF5
:1004F00010E00F5F1F4F0F731127E02E8C8D8E11B0
:100500000CC00FB607FCFACFE889F989808185FF16
:10051000F5CFCE010E942D02F1CFEB8DEC0FFD2F18
:10052000F11DE35AFF4FF0829FB7F8940B8FEA89D1
:10053000FB8980818062CFCFCF93DF93EC01888DE0
:100540008823B9F0AA89BB89E889F9898C9185FD4E
:1005500003C0808186FD0DC00FB607FCF7CF8C91DC
:1005600085FFF2CF808185FFEDCFCE010E942D0265
:10057000E9CFDF91CF910895CF93DF93FC010190F4
:100580000020E9F73197AF01481B590BBC0184E605
:1005900091E00E94AF01EC0142E050E068E171E0BF
:1005A00084E691E00E94AF018C0F9D1FDF91CF91F7
:1005B0000895CF93DF93EC018091290290912A0254
:1005C000009759F020912B0230912C022C173D07F7
:1005D00020F081E0DF91CF910895BE016F5F7F4FE2
:1005E0000E946108009789F090932A028093290263
:1005F000D0932C02C0932B0220912D0230912E0219
:10060000232B39F7FC011082E4CF80E0E3CF1F9267
:100610000F920FB60F9211242F933F938F939F93B6
:10062000AF93BF9380915C0190915D01A0915E01B9
:10063000B0915F0130915B0123E0230F2D3758F516
:100640000196A11DB11D20935B0180935C019093E5
:100650005D01A0935E01B0935F0180916001909174
:100660006101A0916201B09163010196A11DB11DCC
:100670008093600190936101A0936201B093630144
:10068000BF91AF919F918F913F912F910F900FBE8E
:100690000F901F90189526E8230F0296A11DB11DFB
:1006A000D2CF1F920F920FB60F9211242F933F9328
:1006B0004F935F936F937F938F939F93AF93BF936A
:1006C000EF93FF9384E691E00E942D02FF91EF915A
:1006D000BF91AF919F918F917F916F915F914F915A
:1006E0003F912F910F900FBE0F901F9018951F9262
:1006F0000F920FB60F9211242F938F939F93EF9326
:10070000FF93E0917401F09175018081E0917A018D
:10071000F0917B0182FD1BC0908180917D018F5FF4
:100720008F7320917E01821741F0E0917D01F0E00E
:10073000EC59FE4F958F80937D01FF91EF919F9132
:100740008F912F910F900FBE0F901F901895808161
:10075000F4CF1F920F920FB60F9211242F933F9355
:100760004F935F936F937F938F939F93AF93BF93B9
:10077000CF93DF93EF93FF9380915801C0912502AF
:10078000D0E087FF24C010928500109284008091F1
:1007900058018F5F8093580180915801082E000CFA
:1007A000990B8C179D0724F4809158018C30C4F16B
:1007B0008091840090918500049680349C4908F4CF
:1007C0007AC08091840090918500049676C08091D3
:1007D0005801082E000C990B8C179D07C4F6E09168
:1007E00058018E2FEE0F990BFC01EE0FFF1FE80F43
:1007F000F91FEF5FFD4F808186FFC9CFE09158015F
:100800008E2FEE0F990BFC01EE0FFF1FE80FF91F63
:10081000EF5FFD4F808160E08F730E940C01B7CFC6
:100820002091840030918500E09158018E2FEE0FC9
:10083000990BFC01EE0FFF1FE80FF91FEF5FFD4F53
:1008400081819281820F931F909389008093880009
:10085000E09158018E2FEE0F990BFC01EE0FFF1F58
:10086000E80FF91FEF5FFD4F808186FF11C0E09117
:1008700058018E2FEE0F990BFC01EE0FFF1FE80FB2
:10088000F91FEF5FFD4F808161E08F730E940C01C3
:10089000FF91EF91DF91CF91BF91AF919F918F9198
:1008A0007F916F915F914F913F912F910F900FBE6C
:1008B0000F901F90189580E49CE990938900809395
:1008C00088008FEF80935801E3CF10926701109258
:1008D000660188EE93E0A0E0B0E080936801909319
:1008E0006901A0936A01B0936B018AE091E0909353
:1008F00065018093640185EC90E090937101809391
:10090000700184EC90E0909373018093720180EC0D
:1009100090E0909375018093740181EC90E0909346
:1009200077018093760182EC90E090937901809337
:10093000780186EC90E090937B0180937A0110928D
:100940007D0110927E0110927F0110928001109221
:100950002A021092290210922C0210922B0210925D
:100960002E0210922D0290E080E00E94D902209188
:10097000290230912A02811129C02115310519F06F
:10098000C9010E94D80710922A02109229021092DF
:100990002E0210922D0210922C0210922B028091A6
:1009A00025028C30E8F491E0980F90932502809313
:1009B000260290E0FC01EE0FFF1FE80FF91FEF5F2A
:1009C000FD4F88EB9BE092838183089510922E0265
:1009D00010922D026AE171E0C9010E943009DFCF57
:1009E0008FEF809326020895CF93DF9300D0CDB789
:1009F000DEB7789484B5826084BD84B5816084BD9F
:100A000085B5826085BD85B5816085BD80916E00AC
:100A1000816080936E0010928100809181008260DD
:100A2000809381008091810081608093810080911A
:100A300080008160809380008091B1008460809309
:100A4000B1008091B00081608093B00080917A0005
:100A5000846080937A0080917A00826080937A002B
:100A600080917A00816080937A0080917A0080681A
:100A700080937A001092C100E0917401F0917501A9
:100A800082E08083E0917001F09171011082E09129
:100A90007201F09173018FEC808310927C01E091E0
:100AA0007801F091790186E08083E0917601F09100
:100AB0007701808180618083E0917601F0917701F8
:100AC000808188608083E0917601F0917701808158
:100AD00080688083E0917601F091770180818F7D3D
:100AE0008083809126028C3008F050C089E00E94FB
:100AF000880080912602282F30E0F901EE0FFF1FB9
:100B0000E20FF31FEF5FFD4F9081907C996090831F
:100B100010922702109228022CE0622F0E942A07CE
:100B2000829FB001112430E020E0AB01420F531F3F
:100B3000FA01EE0FFF1FE40FF51FEF5FFD4F9081ED
:100B400096FD16C02F5F3F4F2C30310571F7811194
:100B50000FC01092800082E0809381001092850087
:100B600010928400B19A80916F00826080936F0030
:100B7000E09126028E2F90E0FC01EE0FFF1FE80FA0
:100B8000F91FEF5FFD4F80818064808390E080E0FB
:100B90000E94A7008DE00E9488008BE191E00E94F6
:100BA000BC0280E0C82E80E0D82E84E691E00E944E
:100BB0000D02181619060CF06EC084E691E00E9432
:100BC000EB010091590110915A010F5F1F4F1093D3
:100BD0005A010093590189831A82E0902D02F09006
:100BE0002E028FEFE81AF80AC7010E94D902882363
:100BF00099F02091290230912A0280912D02909142
:100C00002E02BE016F5F7F4F820F931F0E9430093B
:100C1000F0922E02E0922D020C30110531F6409137
:100C20002D0250912E026091290270912A0284E6D1
:100C300091E00E94AF0180912D0290912E02892BAC
:100C400009F165E371E08091290290912A020E94E6
:100C50002709892BB9F482E491E00E94BC0261E08B
:100C60008DE00E940C0184EB90E00E94A70068EBED
:100C70007BE080E090E00E947D0190E080E00E94B7
:100C8000A70093CF60E08DE00E940C018CE491E01E
:100C90000E94BC02F2CF10925A011092590190E0CA
:100CA00080E00E94D9022091290230912A0281110C
:100CB00024C02115310519F0C9010E94D8071092EE
:100CC0002A021092290210922E0210922D021092E6
:100CD0002C0210922B0264EF71E080E090E00E9401
:100CE0007D01C114D10409F460CF0E941902882348
:100CF00009F45BCF0E94000058CF10922E02109290
:100D00002D026AE171E0C9010E943009E4CF8091AF
:100D1000290290912A02009711F00C94D8070895A7
:100D2000052E97FB1EF400940E94A70657FD07D0DE
:100D30000E94F90607FC03D04EF40C94A7065095C8
:100D40004095309521953F4F4F4F5F4F08959095B7
:100D50008095709561957F4F8F4F9F4F08950E94AA
:100D60001B07A59F900DB49F900DA49F800D911D12
:100D700011240895B7FF0C94AF060E94AF06821BA2
:100D8000930B08952F923F924F925F926F927F92B2
:100D90008F929F92AF92BF92CF92DF92EF92FF928B
:100DA0000F931F93CF93DF93CDB7DEB7CA1BDB0B37
:100DB0000FB6F894DEBF0FBECDBF09942A883988DC
:100DC00048885F846E847D848C849B84AA84B984E3
:100DD000C884DF80EE80FD800C811B81AA81B981EF
:100DE000CE0FD11D0FB6F894DEBF0FBECDBFED0103
:100DF0000895A1E21A2EAA1BBB1BFD010DC0AA1F5C
:100E0000BB1FEE1FFF1FA217B307E407F50720F073
:100E1000A21BB30BE40BF50B661F771F881F991FEE
:100E20001A9469F760957095809590959B01AC0137
:100E3000BD01CF010895A29FB001B39FC001A39F40
:100E4000700D811D1124911DB29F700D811D112403
:100E5000911D0895991B79E004C0991F961708F019
:100E6000961B881F7A95C9F780950895EE0FFF1F8E
:100E70000590F491E02D09940F931F93CF93DF9386
:100E80008230910510F482E090E0E0913102F0911F
:100E9000320230E020E0B0E0A0E0309799F4211574
:100EA000310509F44AC0281B390B24303105D8F527
:100EB0008A819B816115710589F1FB01938382838E
:100EC000FE0111C0408151810281138148175907E9
:100ED000E0F04817590799F4109761F012960C93B7
:100EE000129713961C933296CF01DF91CF911F91E9
:100EF0000F9108950093310210933202F4CF21151F
:100F0000310551F04217530738F0A901DB019A016E
:100F1000BD01DF01F801C1CFEF01F9CF909332029B
:100F200080933102CDCFFE01E20FF31F81939193A5
:100F30002250310939832883D7CF20912F02309155
:100F40003002232B41F420910201309103013093B0
:100F5000300220932F0220910001309101012115D0
:100F6000310541F42DB73EB7409104015091050180
:100F7000241B350BE0912F02F0913002E217F307AA
:100F8000A0F42E1B3F0B2817390778F0AC014E5FF9
:100F90005F4F2417350748F04E0F5F1F5093300204
:100FA00040932F02819391939FCFF0E0E0E09CCF9C
:100FB000CF93DF930097E9F0FC01329713821282FE
:100FC000A0913102B0913202ED0130E020E01097A3
:100FD000A1F420813181820F931F20912F02309143
:100FE00030022817390709F061C0F0933002E0930E
:100FF0002F02DF91CF910895EA01CE17DF07E8F5C0
:101000004A815B819E0141155105B1F7E901FB83DE
:10101000EA8349915991C40FD51FEC17FD0761F47C
:10102000808191810296840F951FE90199838883BD
:10103000828193819B838A83F0E0E0E012968D9118
:101040009C9113970097B9F52D913C911197CD0183
:101050000296820F931F20912F02309130022817A1
:10106000390739F6309751F5109232021092310259
:10107000B0933002A0932F02BCCFD383C2834081B0
:101080005181840F951FC817D90761F44E5F5F4FD8
:1010900088819981480F591F518340838A819B81A0
:1010A000938382832115310509F0B0CFF09332028A
:1010B000E09331029ECFFD01DC01C0CF138212828A
:1010C000D7CFB0E0A0E0E7E6F8E00C94C4068C01CE
:1010D000009751F4CB010E943C078C01C801CDB7A9
:1010E000DEB7E0E10C94E006FC01E60FF71F9C017F
:1010F00022503109E217F30708F49DC0D901CD91C0
:10110000DC911197C617D70798F0C530D10530F399
:10111000CE0104978617970708F3C61BD70B2297B3
:10112000C193D1936D937C93CF010E94D807D6CF02
:101130005B01AC1ABD0A4C018C0E9D1EA0913102C0
:10114000B0913202512C412CF12CE12C109731F549
:1011500080912F02909130028815990509F05CC0AA
:101160004616570608F058C0809100019091010181
:10117000009741F48DB79EB740910401509105014D
:10118000841B950BE817F90708F055C0F09330025F
:10119000E0932F02F90171836083A0CF8D919C9120
:1011A000119712966C90129713967C901397A8152E
:1011B000B90559F56C0142E0C40ED11CCA14DB0418
:1011C00020F1AC014A195B09DA011296159780F0FB
:1011D0006282738251834083D9016D937C93E114C1
:1011E000F10471F0D7011396FC93EE93129776CF2A
:1011F00022968C0F9D1FF90191838083F301EFCF1D
:10120000F0933202E093310269CF4816590608F490
:101210002C017D01D3019ACFCB010E943C077C01B8
:10122000009749F0AE01B8010E941E09C8010E9452
:10123000D807870153CF10E000E050CFFB01DC015D
:1012400002C001900D9241505040D8F70895FB0123
:10125000DC018D91019080190110D9F3990B08954B
:10126000FB01DC0101900D920020E1F7089510E0F0
:10127000CDE5D0E004C0FE010E9436072196CE35B0
:10128000D107C9F7F894FFCF0000330280000000B7
:1012900000004F02AF01DC019C020D02EB01FF01D7
:1012A0000D0A00506C65617365207363616E20796F
:1012B0006F757220524649442054414700414231E3
:1012C0003233343536373839410056616C69642021
:1012D00054414700496E76616C696420544147006F
:107E0000112484B714BE81FFF0D085E080938100F7
:107E100082E08093C00088E18093C10086E0809377
:107E2000C20080E18093C4008EE0C9D0259A86E02C
:107E300020E33CEF91E0309385002093840096BBD3
:107E4000B09BFECF1D9AA8958150A9F7CC24DD24C4
:107E500088248394B5E0AB2EA1E19A2EF3E0BF2EE7
:107E6000A2D0813461F49FD0082FAFD0023811F036
:107E7000013811F484E001C083E08DD089C08234E0
:107E800011F484E103C0853419F485E0A6D080C0E4
:107E9000853579F488D0E82EFF2485D0082F10E0AE
:107EA000102F00270E291F29000F111F8ED06801E7
:107EB0006FC0863521F484E090D080E0DECF843638
:107EC00009F040C070D06FD0082F6DD080E0C81688
:107ED00080E7D80618F4F601B7BEE895C0E0D1E017
:107EE00062D089930C17E1F7F0E0CF16F0E7DF06D8
:107EF00018F0F601B7BEE89568D007B600FCFDCFD4
:107F0000A601A0E0B1E02C9130E011968C91119780
:107F100090E0982F8827822B932B1296FA010C0160
:107F200087BEE89511244E5F5F4FF1E0A038BF0790
:107F300051F7F601A7BEE89507B600FCFDCF97BE46
:107F4000E89526C08437B1F42ED02DD0F82E2BD052
:107F50003CD0F601EF2C8F010F5F1F4F84911BD097
:107F6000EA94F801C1F70894C11CD11CFA94CF0C13
:107F7000D11C0EC0853739F428D08EE10CD085E9AC
:107F80000AD08FE07ACF813511F488E018D01DD067
:107F900080E101D065CF982F8091C00085FFFCCF94
:107FA0009093C60008958091C00087FFFCCF809118
:107FB000C00084FD01C0A8958091C6000895E0E648
:107FC000F0E098E1908380830895EDDF803219F02E
:107FD00088E0F5DFFFCF84E1DECF1F93182FE3DFCA
:107FE0001150E9F7F2DF1F91089580E0E8DFEE27F6
:047FF000FF270994CA
:027FFE00040479
:00000001FF
